{"contracts/Staking.sol":{"Staking":{"abi":[{"inputs":[{"internalType":"address","name":"token","type":"address"}],"stateMutability":"nonpayable","type":"constructor"},{"inputs":[],"name":"manager","outputs":[{"internalType":"address","name":"","type":"address"}],"stateMutability":"view","type":"function"},{"inputs":[{"internalType":"uint256","name":"amt","type":"uint256"}],"name":"staking","outputs":[],"stateMutability":"nonpayable","type":"function"},{"inputs":[],"name":"unStakeAll","outputs":[],"stateMutability":"nonpayable","type":"function"},{"inputs":[],"name":"zzToken","outputs":[{"internalType":"contract Izz","name":"","type":"address"}],"stateMutability":"view","type":"function"}],"evm":{"bytecode":{"linkReferences":{},"object":"6080604052600260045534801561001557600080fd5b50604051610a68380380610a6883398181016040528101906100379190610155565b806000806101000a81548173ffffffffffffffffffffffffffffffffffffffff021916908373ffffffffffffffffffffffffffffffffffffffff16021790555033600160006101000a81548173ffffffffffffffffffffffffffffffffffffffff021916908373ffffffffffffffffffffffffffffffffffffffff1602179055506064600660008282546100cb91906101bb565b925050819055506064600560008282546100e591906101bb565b92505081905550506101ef565b600080fd5b600073ffffffffffffffffffffffffffffffffffffffff82169050919050565b6000610122826100f7565b9050919050565b61013281610117565b811461013d57600080fd5b50565b60008151905061014f81610129565b92915050565b60006020828403121561016b5761016a6100f2565b5b600061017984828501610140565b91505092915050565b6000819050919050565b7f4e487b7100000000000000000000000000000000000000000000000000000000600052601160045260246000fd5b60006101c682610182565b91506101d183610182565b92508282019050808211156101e9576101e861018c565b5b92915050565b61086a806101fe6000396000f3fe608060405234801561001057600080fd5b506004361061004c5760003560e01c80631dbb2a2214610051578063481c6a751461006d57806361f435bc1461008b578063c64f08a7146100a9575b600080fd5b61006b6004803603810190610066919061050c565b6100b3565b005b61007561022b565b604051610082919061057a565b60405180910390f35b610093610251565b6040516100a091906105f4565b60405180910390f35b6100b1610275565b005b60008054906101000a900473ffffffffffffffffffffffffffffffffffffffff1673ffffffffffffffffffffffffffffffffffffffff1663c0d84ce53330846040518463ffffffff1660e01b81526004016101109392919061061e565b600060405180830381600087803b15801561012a57600080fd5b505af115801561013e573d6000803e3d6000fd5b5050505080600560008282546101549190610684565b9250508190555060648161016891906106e7565b816101739190610718565b905080600660008282546101879190610684565b9250508190555080600260003373ffffffffffffffffffffffffffffffffffffffff1673ffffffffffffffffffffffffffffffffffffffff16815260200190815260200160002060008282546101dd9190610684565b9250508190555042600360003373ffffffffffffffffffffffffffffffffffffffff1673ffffffffffffffffffffffffffffffffffffffff1681526020019081526020016000208190555050565b600160009054906101000a900473ffffffffffffffffffffffffffffffffffffffff1681565b60008054906101000a900473ffffffffffffffffffffffffffffffffffffffff1681565b6000600260003373ffffffffffffffffffffffffffffffffffffffff1673ffffffffffffffffffffffffffffffffffffffff16815260200190815260200160002054036102f7576040517f08c379a00000000000000000000000000000000000000000000000000000000081526004016102ee906107a9565b60405180910390fd5b6000600260003373ffffffffffffffffffffffffffffffffffffffff1673ffffffffffffffffffffffffffffffffffffffff168152602001908152602001600020549050600060065460055461034d91906106e7565b90506000818361035d91906107c9565b90506103698133610440565b60008054906101000a900473ffffffffffffffffffffffffffffffffffffffff1673ffffffffffffffffffffffffffffffffffffffff1663b2088b693033866040518463ffffffff1660e01b81526004016103c69392919061061e565b600060405180830381600087803b1580156103e057600080fd5b505af11580156103f4573d6000803e3d6000fd5b50505050600260003373ffffffffffffffffffffffffffffffffffffffff1673ffffffffffffffffffffffffffffffffffffffff16815260200190815260200160002060009055505050565b60008054906101000a900473ffffffffffffffffffffffffffffffffffffffff1673ffffffffffffffffffffffffffffffffffffffff166340c10f1982846040518363ffffffff1660e01b815260040161049b92919061080b565b600060405180830381600087803b1580156104b557600080fd5b505af11580156104c9573d6000803e3d6000fd5b505050505050565b600080fd5b6000819050919050565b6104e9816104d6565b81146104f457600080fd5b50565b600081359050610506816104e0565b92915050565b600060208284031215610522576105216104d1565b5b6000610530848285016104f7565b91505092915050565b600073ffffffffffffffffffffffffffffffffffffffff82169050919050565b600061056482610539565b9050919050565b61057481610559565b82525050565b600060208201905061058f600083018461056b565b92915050565b6000819050919050565b60006105ba6105b56105b084610539565b610595565b610539565b9050919050565b60006105cc8261059f565b9050919050565b60006105de826105c1565b9050919050565b6105ee816105d3565b82525050565b600060208201905061060960008301846105e5565b92915050565b610618816104d6565b82525050565b6000606082019050610633600083018661056b565b610640602083018561056b565b61064d604083018461060f565b949350505050565b7f4e487b7100000000000000000000000000000000000000000000000000000000600052601160045260246000fd5b600061068f826104d6565b915061069a836104d6565b92508282019050808211156106b2576106b1610655565b5b92915050565b7f4e487b7100000000000000000000000000000000000000000000000000000000600052601260045260246000fd5b60006106f2826104d6565b91506106fd836104d6565b92508261070d5761070c6106b8565b5b828204905092915050565b6000610723826104d6565b915061072e836104d6565b925082820390508181111561074657610745610655565b5b92915050565b600082825260208201905092915050565b7f55736572206d757374207374616b6520736f6d6520616d6f756e740000000000600082015250565b6000610793601b8361074c565b915061079e8261075d565b602082019050919050565b600060208201905081810360008301526107c281610786565b9050919050565b60006107d4826104d6565b91506107df836104d6565b92508282026107ed816104d6565b9150828204841483151761080457610803610655565b5b5092915050565b6000604082019050610820600083018561056b565b61082d602083018461060f565b939250505056fea2646970667358221220e774c386417a57cde8a822c9a0fd5a56dd86ac99123453a3b14049aff61bb7f364736f6c63430008120033","opcodes":"PUSH1 0x80 PUSH1 0x40 MSTORE PUSH1 0x2 PUSH1 0x4 SSTORE CALLVALUE DUP1 ISZERO PUSH2 0x15 JUMPI PUSH1 0x0 DUP1 REVERT JUMPDEST POP PUSH1 0x40 MLOAD PUSH2 0xA68 CODESIZE SUB DUP1 PUSH2 0xA68 DUP4 CODECOPY DUP2 DUP2 ADD PUSH1 0x40 MSTORE DUP2 ADD SWAP1 PUSH2 0x37 SWAP2 SWAP1 PUSH2 0x155 JUMP JUMPDEST DUP1 PUSH1 0x0 DUP1 PUSH2 0x100 EXP DUP2 SLOAD DUP2 PUSH20 0xFFFFFFFFFFFFFFFFFFFFFFFFFFFFFFFFFFFFFFFF MUL NOT AND SWAP1 DUP4 PUSH20 0xFFFFFFFFFFFFFFFFFFFFFFFFFFFFFFFFFFFFFFFF AND MUL OR SWAP1 SSTORE POP CALLER PUSH1 0x1 PUSH1 0x0 PUSH2 0x100 EXP DUP2 SLOAD DUP2 PUSH20 0xFFFFFFFFFFFFFFFFFFFFFFFFFFFFFFFFFFFFFFFF MUL NOT AND SWAP1 DUP4 PUSH20 0xFFFFFFFFFFFFFFFFFFFFFFFFFFFFFFFFFFFFFFFF AND MUL OR SWAP1 SSTORE POP PUSH1 0x64 PUSH1 0x6 PUSH1 0x0 DUP3 DUP3 SLOAD PUSH2 0xCB SWAP2 SWAP1 PUSH2 0x1BB JUMP JUMPDEST SWAP3 POP POP DUP2 SWAP1 SSTORE POP PUSH1 0x64 PUSH1 0x5 PUSH1 0x0 DUP3 DUP3 SLOAD PUSH2 0xE5 SWAP2 SWAP1 PUSH2 0x1BB JUMP JUMPDEST SWAP3 POP POP DUP2 SWAP1 SSTORE POP POP PUSH2 0x1EF JUMP JUMPDEST PUSH1 0x0 DUP1 REVERT JUMPDEST PUSH1 0x0 PUSH20 0xFFFFFFFFFFFFFFFFFFFFFFFFFFFFFFFFFFFFFFFF DUP3 AND SWAP1 POP SWAP2 SWAP1 POP JUMP JUMPDEST PUSH1 0x0 PUSH2 0x122 DUP3 PUSH2 0xF7 JUMP JUMPDEST SWAP1 POP SWAP2 SWAP1 POP JUMP JUMPDEST PUSH2 0x132 DUP2 PUSH2 0x117 JUMP JUMPDEST DUP2 EQ PUSH2 0x13D JUMPI PUSH1 0x0 DUP1 REVERT JUMPDEST POP JUMP JUMPDEST PUSH1 0x0 DUP2 MLOAD SWAP1 POP PUSH2 0x14F DUP2 PUSH2 0x129 JUMP JUMPDEST SWAP3 SWAP2 POP POP JUMP JUMPDEST PUSH1 0x0 PUSH1 0x20 DUP3 DUP5 SUB SLT ISZERO PUSH2 0x16B JUMPI PUSH2 0x16A PUSH2 0xF2 JUMP JUMPDEST JUMPDEST PUSH1 0x0 PUSH2 0x179 DUP5 DUP3 DUP6 ADD PUSH2 0x140 JUMP JUMPDEST SWAP2 POP POP SWAP3 SWAP2 POP POP JUMP JUMPDEST PUSH1 0x0 DUP2 SWAP1 POP SWAP2 SWAP1 POP JUMP JUMPDEST PUSH32 0x4E487B7100000000000000000000000000000000000000000000000000000000 PUSH1 0x0 MSTORE PUSH1 0x11 PUSH1 0x4 MSTORE PUSH1 0x24 PUSH1 0x0 REVERT JUMPDEST PUSH1 0x0 PUSH2 0x1C6 DUP3 PUSH2 0x182 JUMP JUMPDEST SWAP2 POP PUSH2 0x1D1 DUP4 PUSH2 0x182 JUMP JUMPDEST SWAP3 POP DUP3 DUP3 ADD SWAP1 POP DUP1 DUP3 GT ISZERO PUSH2 0x1E9 JUMPI PUSH2 0x1E8 PUSH2 0x18C JUMP JUMPDEST JUMPDEST SWAP3 SWAP2 POP POP JUMP JUMPDEST PUSH2 0x86A DUP1 PUSH2 0x1FE PUSH1 0x0 CODECOPY PUSH1 0x0 RETURN INVALID PUSH1 0x80 PUSH1 0x40 MSTORE CALLVALUE DUP1 ISZERO PUSH2 0x10 JUMPI PUSH1 0x0 DUP1 REVERT JUMPDEST POP PUSH1 0x4 CALLDATASIZE LT PUSH2 0x4C JUMPI PUSH1 0x0 CALLDATALOAD PUSH1 0xE0 SHR DUP1 PUSH4 0x1DBB2A22 EQ PUSH2 0x51 JUMPI DUP1 PUSH4 0x481C6A75 EQ PUSH2 0x6D JUMPI DUP1 PUSH4 0x61F435BC EQ PUSH2 0x8B JUMPI DUP1 PUSH4 0xC64F08A7 EQ PUSH2 0xA9 JUMPI JUMPDEST PUSH1 0x0 DUP1 REVERT JUMPDEST PUSH2 0x6B PUSH1 0x4 DUP1 CALLDATASIZE SUB DUP2 ADD SWAP1 PUSH2 0x66 SWAP2 SWAP1 PUSH2 0x50C JUMP JUMPDEST PUSH2 0xB3 JUMP JUMPDEST STOP JUMPDEST PUSH2 0x75 PUSH2 0x22B JUMP JUMPDEST PUSH1 0x40 MLOAD PUSH2 0x82 SWAP2 SWAP1 PUSH2 0x57A JUMP JUMPDEST PUSH1 0x40 MLOAD DUP1 SWAP2 SUB SWAP1 RETURN JUMPDEST PUSH2 0x93 PUSH2 0x251 JUMP JUMPDEST PUSH1 0x40 MLOAD PUSH2 0xA0 SWAP2 SWAP1 PUSH2 0x5F4 JUMP JUMPDEST PUSH1 0x40 MLOAD DUP1 SWAP2 SUB SWAP1 RETURN JUMPDEST PUSH2 0xB1 PUSH2 0x275 JUMP JUMPDEST STOP JUMPDEST PUSH1 0x0 DUP1 SLOAD SWAP1 PUSH2 0x100 EXP SWAP1 DIV PUSH20 0xFFFFFFFFFFFFFFFFFFFFFFFFFFFFFFFFFFFFFFFF AND PUSH20 0xFFFFFFFFFFFFFFFFFFFFFFFFFFFFFFFFFFFFFFFF AND PUSH4 0xC0D84CE5 CALLER ADDRESS DUP5 PUSH1 0x40 MLOAD DUP5 PUSH4 0xFFFFFFFF AND PUSH1 0xE0 SHL DUP2 MSTORE PUSH1 0x4 ADD PUSH2 0x110 SWAP4 SWAP3 SWAP2 SWAP1 PUSH2 0x61E JUMP JUMPDEST PUSH1 0x0 PUSH1 0x40 MLOAD DUP1 DUP4 SUB DUP2 PUSH1 0x0 DUP8 DUP1 EXTCODESIZE ISZERO DUP1 ISZERO PUSH2 0x12A JUMPI PUSH1 0x0 DUP1 REVERT JUMPDEST POP GAS CALL ISZERO DUP1 ISZERO PUSH2 0x13E JUMPI RETURNDATASIZE PUSH1 0x0 DUP1 RETURNDATACOPY RETURNDATASIZE PUSH1 0x0 REVERT JUMPDEST POP POP POP POP DUP1 PUSH1 0x5 PUSH1 0x0 DUP3 DUP3 SLOAD PUSH2 0x154 SWAP2 SWAP1 PUSH2 0x684 JUMP JUMPDEST SWAP3 POP POP DUP2 SWAP1 SSTORE POP PUSH1 0x64 DUP2 PUSH2 0x168 SWAP2 SWAP1 PUSH2 0x6E7 JUMP JUMPDEST DUP2 PUSH2 0x173 SWAP2 SWAP1 PUSH2 0x718 JUMP JUMPDEST SWAP1 POP DUP1 PUSH1 0x6 PUSH1 0x0 DUP3 DUP3 SLOAD PUSH2 0x187 SWAP2 SWAP1 PUSH2 0x684 JUMP JUMPDEST SWAP3 POP POP DUP2 SWAP1 SSTORE POP DUP1 PUSH1 0x2 PUSH1 0x0 CALLER PUSH20 0xFFFFFFFFFFFFFFFFFFFFFFFFFFFFFFFFFFFFFFFF AND PUSH20 0xFFFFFFFFFFFFFFFFFFFFFFFFFFFFFFFFFFFFFFFF AND DUP2 MSTORE PUSH1 0x20 ADD SWAP1 DUP2 MSTORE PUSH1 0x20 ADD PUSH1 0x0 KECCAK256 PUSH1 0x0 DUP3 DUP3 SLOAD PUSH2 0x1DD SWAP2 SWAP1 PUSH2 0x684 JUMP JUMPDEST SWAP3 POP POP DUP2 SWAP1 SSTORE POP TIMESTAMP PUSH1 0x3 PUSH1 0x0 CALLER PUSH20 0xFFFFFFFFFFFFFFFFFFFFFFFFFFFFFFFFFFFFFFFF AND PUSH20 0xFFFFFFFFFFFFFFFFFFFFFFFFFFFFFFFFFFFFFFFF AND DUP2 MSTORE PUSH1 0x20 ADD SWAP1 DUP2 MSTORE PUSH1 0x20 ADD PUSH1 0x0 KECCAK256 DUP2 SWAP1 SSTORE POP POP JUMP JUMPDEST PUSH1 0x1 PUSH1 0x0 SWAP1 SLOAD SWAP1 PUSH2 0x100 EXP SWAP1 DIV PUSH20 0xFFFFFFFFFFFFFFFFFFFFFFFFFFFFFFFFFFFFFFFF AND DUP2 JUMP JUMPDEST PUSH1 0x0 DUP1 SLOAD SWAP1 PUSH2 0x100 EXP SWAP1 DIV PUSH20 0xFFFFFFFFFFFFFFFFFFFFFFFFFFFFFFFFFFFFFFFF AND DUP2 JUMP JUMPDEST PUSH1 0x0 PUSH1 0x2 PUSH1 0x0 CALLER PUSH20 0xFFFFFFFFFFFFFFFFFFFFFFFFFFFFFFFFFFFFFFFF AND PUSH20 0xFFFFFFFFFFFFFFFFFFFFFFFFFFFFFFFFFFFFFFFF AND DUP2 MSTORE PUSH1 0x20 ADD SWAP1 DUP2 MSTORE PUSH1 0x20 ADD PUSH1 0x0 KECCAK256 SLOAD SUB PUSH2 0x2F7 JUMPI PUSH1 0x40 MLOAD PUSH32 0x8C379A000000000000000000000000000000000000000000000000000000000 DUP2 MSTORE PUSH1 0x4 ADD PUSH2 0x2EE SWAP1 PUSH2 0x7A9 JUMP JUMPDEST PUSH1 0x40 MLOAD DUP1 SWAP2 SUB SWAP1 REVERT JUMPDEST PUSH1 0x0 PUSH1 0x2 PUSH1 0x0 CALLER PUSH20 0xFFFFFFFFFFFFFFFFFFFFFFFFFFFFFFFFFFFFFFFF AND PUSH20 0xFFFFFFFFFFFFFFFFFFFFFFFFFFFFFFFFFFFFFFFF AND DUP2 MSTORE PUSH1 0x20 ADD SWAP1 DUP2 MSTORE PUSH1 0x20 ADD PUSH1 0x0 KECCAK256 SLOAD SWAP1 POP PUSH1 0x0 PUSH1 0x6 SLOAD PUSH1 0x5 SLOAD PUSH2 0x34D SWAP2 SWAP1 PUSH2 0x6E7 JUMP JUMPDEST SWAP1 POP PUSH1 0x0 DUP2 DUP4 PUSH2 0x35D SWAP2 SWAP1 PUSH2 0x7C9 JUMP JUMPDEST SWAP1 POP PUSH2 0x369 DUP2 CALLER PUSH2 0x440 JUMP JUMPDEST PUSH1 0x0 DUP1 SLOAD SWAP1 PUSH2 0x100 EXP SWAP1 DIV PUSH20 0xFFFFFFFFFFFFFFFFFFFFFFFFFFFFFFFFFFFFFFFF AND PUSH20 0xFFFFFFFFFFFFFFFFFFFFFFFFFFFFFFFFFFFFFFFF AND PUSH4 0xB2088B69 ADDRESS CALLER DUP7 PUSH1 0x40 MLOAD DUP5 PUSH4 0xFFFFFFFF AND PUSH1 0xE0 SHL DUP2 MSTORE PUSH1 0x4 ADD PUSH2 0x3C6 SWAP4 SWAP3 SWAP2 SWAP1 PUSH2 0x61E JUMP JUMPDEST PUSH1 0x0 PUSH1 0x40 MLOAD DUP1 DUP4 SUB DUP2 PUSH1 0x0 DUP8 DUP1 EXTCODESIZE ISZERO DUP1 ISZERO PUSH2 0x3E0 JUMPI PUSH1 0x0 DUP1 REVERT JUMPDEST POP GAS CALL ISZERO DUP1 ISZERO PUSH2 0x3F4 JUMPI RETURNDATASIZE PUSH1 0x0 DUP1 RETURNDATACOPY RETURNDATASIZE PUSH1 0x0 REVERT JUMPDEST POP POP POP POP PUSH1 0x2 PUSH1 0x0 CALLER PUSH20 0xFFFFFFFFFFFFFFFFFFFFFFFFFFFFFFFFFFFFFFFF AND PUSH20 0xFFFFFFFFFFFFFFFFFFFFFFFFFFFFFFFFFFFFFFFF AND DUP2 MSTORE PUSH1 0x20 ADD SWAP1 DUP2 MSTORE PUSH1 0x20 ADD PUSH1 0x0 KECCAK256 PUSH1 0x0 SWAP1 SSTORE POP POP POP JUMP JUMPDEST PUSH1 0x0 DUP1 SLOAD SWAP1 PUSH2 0x100 EXP SWAP1 DIV PUSH20 0xFFFFFFFFFFFFFFFFFFFFFFFFFFFFFFFFFFFFFFFF AND PUSH20 0xFFFFFFFFFFFFFFFFFFFFFFFFFFFFFFFFFFFFFFFF AND PUSH4 0x40C10F19 DUP3 DUP5 PUSH1 0x40 MLOAD DUP4 PUSH4 0xFFFFFFFF AND PUSH1 0xE0 SHL DUP2 MSTORE PUSH1 0x4 ADD PUSH2 0x49B SWAP3 SWAP2 SWAP1 PUSH2 0x80B JUMP JUMPDEST PUSH1 0x0 PUSH1 0x40 MLOAD DUP1 DUP4 SUB DUP2 PUSH1 0x0 DUP8 DUP1 EXTCODESIZE ISZERO DUP1 ISZERO PUSH2 0x4B5 JUMPI PUSH1 0x0 DUP1 REVERT JUMPDEST POP GAS CALL ISZERO DUP1 ISZERO PUSH2 0x4C9 JUMPI RETURNDATASIZE PUSH1 0x0 DUP1 RETURNDATACOPY RETURNDATASIZE PUSH1 0x0 REVERT JUMPDEST POP POP POP POP POP POP JUMP JUMPDEST PUSH1 0x0 DUP1 REVERT JUMPDEST PUSH1 0x0 DUP2 SWAP1 POP SWAP2 SWAP1 POP JUMP JUMPDEST PUSH2 0x4E9 DUP2 PUSH2 0x4D6 JUMP JUMPDEST DUP2 EQ PUSH2 0x4F4 JUMPI PUSH1 0x0 DUP1 REVERT JUMPDEST POP JUMP JUMPDEST PUSH1 0x0 DUP2 CALLDATALOAD SWAP1 POP PUSH2 0x506 DUP2 PUSH2 0x4E0 JUMP JUMPDEST SWAP3 SWAP2 POP POP JUMP JUMPDEST PUSH1 0x0 PUSH1 0x20 DUP3 DUP5 SUB SLT ISZERO PUSH2 0x522 JUMPI PUSH2 0x521 PUSH2 0x4D1 JUMP JUMPDEST JUMPDEST PUSH1 0x0 PUSH2 0x530 DUP5 DUP3 DUP6 ADD PUSH2 0x4F7 JUMP JUMPDEST SWAP2 POP POP SWAP3 SWAP2 POP POP JUMP JUMPDEST PUSH1 0x0 PUSH20 0xFFFFFFFFFFFFFFFFFFFFFFFFFFFFFFFFFFFFFFFF DUP3 AND SWAP1 POP SWAP2 SWAP1 POP JUMP JUMPDEST PUSH1 0x0 PUSH2 0x564 DUP3 PUSH2 0x539 JUMP JUMPDEST SWAP1 POP SWAP2 SWAP1 POP JUMP JUMPDEST PUSH2 0x574 DUP2 PUSH2 0x559 JUMP JUMPDEST DUP3 MSTORE POP POP JUMP JUMPDEST PUSH1 0x0 PUSH1 0x20 DUP3 ADD SWAP1 POP PUSH2 0x58F PUSH1 0x0 DUP4 ADD DUP5 PUSH2 0x56B JUMP JUMPDEST SWAP3 SWAP2 POP POP JUMP JUMPDEST PUSH1 0x0 DUP2 SWAP1 POP SWAP2 SWAP1 POP JUMP JUMPDEST PUSH1 0x0 PUSH2 0x5BA PUSH2 0x5B5 PUSH2 0x5B0 DUP5 PUSH2 0x539 JUMP JUMPDEST PUSH2 0x595 JUMP JUMPDEST PUSH2 0x539 JUMP JUMPDEST SWAP1 POP SWAP2 SWAP1 POP JUMP JUMPDEST PUSH1 0x0 PUSH2 0x5CC DUP3 PUSH2 0x59F JUMP JUMPDEST SWAP1 POP SWAP2 SWAP1 POP JUMP JUMPDEST PUSH1 0x0 PUSH2 0x5DE DUP3 PUSH2 0x5C1 JUMP JUMPDEST SWAP1 POP SWAP2 SWAP1 POP JUMP JUMPDEST PUSH2 0x5EE DUP2 PUSH2 0x5D3 JUMP JUMPDEST DUP3 MSTORE POP POP JUMP JUMPDEST PUSH1 0x0 PUSH1 0x20 DUP3 ADD SWAP1 POP PUSH2 0x609 PUSH1 0x0 DUP4 ADD DUP5 PUSH2 0x5E5 JUMP JUMPDEST SWAP3 SWAP2 POP POP JUMP JUMPDEST PUSH2 0x618 DUP2 PUSH2 0x4D6 JUMP JUMPDEST DUP3 MSTORE POP POP JUMP JUMPDEST PUSH1 0x0 PUSH1 0x60 DUP3 ADD SWAP1 POP PUSH2 0x633 PUSH1 0x0 DUP4 ADD DUP7 PUSH2 0x56B JUMP JUMPDEST PUSH2 0x640 PUSH1 0x20 DUP4 ADD DUP6 PUSH2 0x56B JUMP JUMPDEST PUSH2 0x64D PUSH1 0x40 DUP4 ADD DUP5 PUSH2 0x60F JUMP JUMPDEST SWAP5 SWAP4 POP POP POP POP JUMP JUMPDEST PUSH32 0x4E487B7100000000000000000000000000000000000000000000000000000000 PUSH1 0x0 MSTORE PUSH1 0x11 PUSH1 0x4 MSTORE PUSH1 0x24 PUSH1 0x0 REVERT JUMPDEST PUSH1 0x0 PUSH2 0x68F DUP3 PUSH2 0x4D6 JUMP JUMPDEST SWAP2 POP PUSH2 0x69A DUP4 PUSH2 0x4D6 JUMP JUMPDEST SWAP3 POP DUP3 DUP3 ADD SWAP1 POP DUP1 DUP3 GT ISZERO PUSH2 0x6B2 JUMPI PUSH2 0x6B1 PUSH2 0x655 JUMP JUMPDEST JUMPDEST SWAP3 SWAP2 POP POP JUMP JUMPDEST PUSH32 0x4E487B7100000000000000000000000000000000000000000000000000000000 PUSH1 0x0 MSTORE PUSH1 0x12 PUSH1 0x4 MSTORE PUSH1 0x24 PUSH1 0x0 REVERT JUMPDEST PUSH1 0x0 PUSH2 0x6F2 DUP3 PUSH2 0x4D6 JUMP JUMPDEST SWAP2 POP PUSH2 0x6FD DUP4 PUSH2 0x4D6 JUMP JUMPDEST SWAP3 POP DUP3 PUSH2 0x70D JUMPI PUSH2 0x70C PUSH2 0x6B8 JUMP JUMPDEST JUMPDEST DUP3 DUP3 DIV SWAP1 POP SWAP3 SWAP2 POP POP JUMP JUMPDEST PUSH1 0x0 PUSH2 0x723 DUP3 PUSH2 0x4D6 JUMP JUMPDEST SWAP2 POP PUSH2 0x72E DUP4 PUSH2 0x4D6 JUMP JUMPDEST SWAP3 POP DUP3 DUP3 SUB SWAP1 POP DUP2 DUP2 GT ISZERO PUSH2 0x746 JUMPI PUSH2 0x745 PUSH2 0x655 JUMP JUMPDEST JUMPDEST SWAP3 SWAP2 POP POP JUMP JUMPDEST PUSH1 0x0 DUP3 DUP3 MSTORE PUSH1 0x20 DUP3 ADD SWAP1 POP SWAP3 SWAP2 POP POP JUMP JUMPDEST PUSH32 0x55736572206D757374207374616B6520736F6D6520616D6F756E740000000000 PUSH1 0x0 DUP3 ADD MSTORE POP JUMP JUMPDEST PUSH1 0x0 PUSH2 0x793 PUSH1 0x1B DUP4 PUSH2 0x74C JUMP JUMPDEST SWAP2 POP PUSH2 0x79E DUP3 PUSH2 0x75D JUMP JUMPDEST PUSH1 0x20 DUP3 ADD SWAP1 POP SWAP2 SWAP1 POP JUMP JUMPDEST PUSH1 0x0 PUSH1 0x20 DUP3 ADD SWAP1 POP DUP2 DUP2 SUB PUSH1 0x0 DUP4 ADD MSTORE PUSH2 0x7C2 DUP2 PUSH2 0x786 JUMP JUMPDEST SWAP1 POP SWAP2 SWAP1 POP JUMP JUMPDEST PUSH1 0x0 PUSH2 0x7D4 DUP3 PUSH2 0x4D6 JUMP JUMPDEST SWAP2 POP PUSH2 0x7DF DUP4 PUSH2 0x4D6 JUMP JUMPDEST SWAP3 POP DUP3 DUP3 MUL PUSH2 0x7ED DUP2 PUSH2 0x4D6 JUMP JUMPDEST SWAP2 POP DUP3 DUP3 DIV DUP5 EQ DUP4 ISZERO OR PUSH2 0x804 JUMPI PUSH2 0x803 PUSH2 0x655 JUMP JUMPDEST JUMPDEST POP SWAP3 SWAP2 POP POP JUMP JUMPDEST PUSH1 0x0 PUSH1 0x40 DUP3 ADD SWAP1 POP PUSH2 0x820 PUSH1 0x0 DUP4 ADD DUP6 PUSH2 0x56B JUMP JUMPDEST PUSH2 0x82D PUSH1 0x20 DUP4 ADD DUP5 PUSH2 0x60F JUMP JUMPDEST SWAP4 SWAP3 POP POP POP JUMP INVALID LOG2 PUSH5 0x6970667358 0x22 SLT KECCAK256 0xE7 PUSH21 0xC386417A57CDE8A822C9A0FD5A56DD86AC99123453 LOG3 0xB1 BLOCKHASH 0x49 0xAF 0xF6 SHL 0xB7 RETURN PUSH5 0x736F6C6343 STOP ADDMOD SLT STOP CALLER "},"methodIdentifiers":{"manager()":"481c6a75","staking(uint256)":"1dbb2a22","unStakeAll()":"c64f08a7","zzToken()":"61f435bc"}}}}}