{
  "_format": "hh-sol-artifact-1",
  "contractName": "Lock",
  "sourceName": "contracts/Box.sol",
  "abi": [
    {
      "anonymous": false,
      "inputs": [
        {
          "indexed": false,
          "internalType": "uint256",
          "name": "amount",
          "type": "uint256"
        }
      ],
      "name": "valueChange",
      "type": "event"
    },
    {
      "inputs": [],
      "name": "retrive",
      "outputs": [
        {
          "internalType": "uint256",
          "name": "",
          "type": "uint256"
        }
      ],
      "stateMutability": "view",
      "type": "function"
    },
    {
      "inputs": [
        {
          "internalType": "uint256",
          "name": "newValue",
          "type": "uint256"
        }
      ],
      "name": "store",
      "outputs": [],
      "stateMutability": "nonpayable",
      "type": "function"
    }
  ],
  "bytecode": "0x608060405234801561001057600080fd5b50610189806100206000396000f3fe608060405234801561001057600080fd5b50600436106100365760003560e01c80636057361d1461003b578063a6b7fc5b14610057575b600080fd5b610055600480360381019061005091906100fc565b610075565b005b61005f6100b8565b60405161006c9190610138565b60405180910390f35b806000819055507f2d0599878921e2d8617d5ea681445dc026673e046fa320d0d5d0140d73881e876000546040516100ad9190610138565b60405180910390a150565b60008054905090565b600080fd5b6000819050919050565b6100d9816100c6565b81146100e457600080fd5b50565b6000813590506100f6816100d0565b92915050565b600060208284031215610112576101116100c1565b5b6000610120848285016100e7565b91505092915050565b610132816100c6565b82525050565b600060208201905061014d6000830184610129565b9291505056fea264697066735822122065a69523e97ef3790b865b18fa212840b23cb12aac596944c5315b9d7788ceed64736f6c63430008120033",
  "linkReferences": {},
  "deployedLinkReferences": {}
}