{
  "_format": "hh-sol-artifact-1",
  "contractName": "Staking",
  "sourceName": "contracts/Staking.sol",
  "abi": [
    {
      "inputs": [
        {
          "internalType": "address",
          "name": "token",
          "type": "address"
        }
      ],
      "stateMutability": "nonpayable",
      "type": "constructor"
    },
    {
      "inputs": [],
      "name": "manager",
      "outputs": [
        {
          "internalType": "address",
          "name": "",
          "type": "address"
        }
      ],
      "stateMutability": "view",
      "type": "function"
    },
    {
      "inputs": [
        {
          "internalType": "uint256",
          "name": "amt",
          "type": "uint256"
        }
      ],
      "name": "staking",
      "outputs": [],
      "stateMutability": "nonpayable",
      "type": "function"
    },
    {
      "inputs": [],
      "name": "unStakeAll",
      "outputs": [],
      "stateMutability": "nonpayable",
      "type": "function"
    },
    {
      "inputs": [],
      "name": "zzToken",
      "outputs": [
        {
          "internalType": "contract Izz",
          "name": "",
          "type": "address"
        }
      ],
      "stateMutability": "view",
      "type": "function"
    }
  ],
  "bytecode": "0x6080604052600260045534801561001557600080fd5b50604051610a68380380610a6883398181016040528101906100379190610155565b806000806101000a81548173ffffffffffffffffffffffffffffffffffffffff021916908373ffffffffffffffffffffffffffffffffffffffff16021790555033600160006101000a81548173ffffffffffffffffffffffffffffffffffffffff021916908373ffffffffffffffffffffffffffffffffffffffff1602179055506064600660008282546100cb91906101bb565b925050819055506064600560008282546100e591906101bb565b92505081905550506101ef565b600080fd5b600073ffffffffffffffffffffffffffffffffffffffff82169050919050565b6000610122826100f7565b9050919050565b61013281610117565b811461013d57600080fd5b50565b60008151905061014f81610129565b92915050565b60006020828403121561016b5761016a6100f2565b5b600061017984828501610140565b91505092915050565b6000819050919050565b7f4e487b7100000000000000000000000000000000000000000000000000000000600052601160045260246000fd5b60006101c682610182565b91506101d183610182565b92508282019050808211156101e9576101e861018c565b5b92915050565b61086a806101fe6000396000f3fe608060405234801561001057600080fd5b506004361061004c5760003560e01c80631dbb2a2214610051578063481c6a751461006d57806361f435bc1461008b578063c64f08a7146100a9575b600080fd5b61006b6004803603810190610066919061050c565b6100b3565b005b61007561022b565b604051610082919061057a565b60405180910390f35b610093610251565b6040516100a091906105f4565b60405180910390f35b6100b1610275565b005b60008054906101000a900473ffffffffffffffffffffffffffffffffffffffff1673ffffffffffffffffffffffffffffffffffffffff1663c0d84ce53330846040518463ffffffff1660e01b81526004016101109392919061061e565b600060405180830381600087803b15801561012a57600080fd5b505af115801561013e573d6000803e3d6000fd5b5050505080600560008282546101549190610684565b9250508190555060648161016891906106e7565b816101739190610718565b905080600660008282546101879190610684565b9250508190555080600260003373ffffffffffffffffffffffffffffffffffffffff1673ffffffffffffffffffffffffffffffffffffffff16815260200190815260200160002060008282546101dd9190610684565b9250508190555042600360003373ffffffffffffffffffffffffffffffffffffffff1673ffffffffffffffffffffffffffffffffffffffff1681526020019081526020016000208190555050565b600160009054906101000a900473ffffffffffffffffffffffffffffffffffffffff1681565b60008054906101000a900473ffffffffffffffffffffffffffffffffffffffff1681565b6000600260003373ffffffffffffffffffffffffffffffffffffffff1673ffffffffffffffffffffffffffffffffffffffff16815260200190815260200160002054036102f7576040517f08c379a00000000000000000000000000000000000000000000000000000000081526004016102ee906107a9565b60405180910390fd5b6000600260003373ffffffffffffffffffffffffffffffffffffffff1673ffffffffffffffffffffffffffffffffffffffff168152602001908152602001600020549050600060065460055461034d91906106e7565b90506000818361035d91906107c9565b90506103698133610440565b60008054906101000a900473ffffffffffffffffffffffffffffffffffffffff1673ffffffffffffffffffffffffffffffffffffffff1663b2088b693033866040518463ffffffff1660e01b81526004016103c69392919061061e565b600060405180830381600087803b1580156103e057600080fd5b505af11580156103f4573d6000803e3d6000fd5b50505050600260003373ffffffffffffffffffffffffffffffffffffffff1673ffffffffffffffffffffffffffffffffffffffff16815260200190815260200160002060009055505050565b60008054906101000a900473ffffffffffffffffffffffffffffffffffffffff1673ffffffffffffffffffffffffffffffffffffffff166340c10f1982846040518363ffffffff1660e01b815260040161049b92919061080b565b600060405180830381600087803b1580156104b557600080fd5b505af11580156104c9573d6000803e3d6000fd5b505050505050565b600080fd5b6000819050919050565b6104e9816104d6565b81146104f457600080fd5b50565b600081359050610506816104e0565b92915050565b600060208284031215610522576105216104d1565b5b6000610530848285016104f7565b91505092915050565b600073ffffffffffffffffffffffffffffffffffffffff82169050919050565b600061056482610539565b9050919050565b61057481610559565b82525050565b600060208201905061058f600083018461056b565b92915050565b6000819050919050565b60006105ba6105b56105b084610539565b610595565b610539565b9050919050565b60006105cc8261059f565b9050919050565b60006105de826105c1565b9050919050565b6105ee816105d3565b82525050565b600060208201905061060960008301846105e5565b92915050565b610618816104d6565b82525050565b6000606082019050610633600083018661056b565b610640602083018561056b565b61064d604083018461060f565b949350505050565b7f4e487b7100000000000000000000000000000000000000000000000000000000600052601160045260246000fd5b600061068f826104d6565b915061069a836104d6565b92508282019050808211156106b2576106b1610655565b5b92915050565b7f4e487b7100000000000000000000000000000000000000000000000000000000600052601260045260246000fd5b60006106f2826104d6565b91506106fd836104d6565b92508261070d5761070c6106b8565b5b828204905092915050565b6000610723826104d6565b915061072e836104d6565b925082820390508181111561074657610745610655565b5b92915050565b600082825260208201905092915050565b7f55736572206d757374207374616b6520736f6d6520616d6f756e740000000000600082015250565b6000610793601b8361074c565b915061079e8261075d565b602082019050919050565b600060208201905081810360008301526107c281610786565b9050919050565b60006107d4826104d6565b91506107df836104d6565b92508282026107ed816104d6565b9150828204841483151761080457610803610655565b5b5092915050565b6000604082019050610820600083018561056b565b61082d602083018461060f565b939250505056fea2646970667358221220e774c386417a57cde8a822c9a0fd5a56dd86ac99123453a3b14049aff61bb7f364736f6c63430008120033",
  "linkReferences": {},
  "deployedLinkReferences": {}
}